{
  "_format": "hh-sol-artifact-1",
  "contractName": "NewsMint",
  "sourceName": "contracts/NewsMint.sol",
  "abi": [
    {
      "inputs": [],
      "stateMutability": "nonpayable",
      "type": "constructor"
    },
    {
      "inputs": [
        {
          "internalType": "address",
          "name": "sender",
          "type": "address"
        },
        {
          "internalType": "uint256",
          "name": "tokenId",
          "type": "uint256"
        },
        {
          "internalType": "address",
          "name": "owner",
          "type": "address"
        }
      ],
      "name": "ERC721IncorrectOwner",
      "type": "error"
    },
    {
      "inputs": [
        {
          "internalType": "address",
          "name": "operator",
          "type": "address"
        },
        {
          "internalType": "uint256",
          "name": "tokenId",
          "type": "uint256"
        }
      ],
      "name": "ERC721InsufficientApproval",
      "type": "error"
    },
    {
      "inputs": [
        {
          "internalType": "address",
          "name": "approver",
          "type": "address"
        }
      ],
      "name": "ERC721InvalidApprover",
      "type": "error"
    },
    {
      "inputs": [
        {
          "internalType": "address",
          "name": "operator",
          "type": "address"
        }
      ],
      "name": "ERC721InvalidOperator",
      "type": "error"
    },
    {
      "inputs": [
        {
          "internalType": "address",
          "name": "owner",
          "type": "address"
        }
      ],
      "name": "ERC721InvalidOwner",
      "type": "error"
    },
    {
      "inputs": [
        {
          "internalType": "address",
          "name": "receiver",
          "type": "address"
        }
      ],
      "name": "ERC721InvalidReceiver",
      "type": "error"
    },
    {
      "inputs": [
        {
          "internalType": "address",
          "name": "sender",
          "type": "address"
        }
      ],
      "name": "ERC721InvalidSender",
      "type": "error"
    },
    {
      "inputs": [
        {
          "internalType": "uint256",
          "name": "tokenId",
          "type": "uint256"
        }
      ],
      "name": "ERC721NonexistentToken",
      "type": "error"
    },
    {
      "inputs": [
        {
          "internalType": "address",
          "name": "owner",
          "type": "address"
        }
      ],
      "name": "OwnableInvalidOwner",
      "type": "error"
    },
    {
      "inputs": [
        {
          "internalType": "address",
          "name": "account",
          "type": "address"
        }
      ],
      "name": "OwnableUnauthorizedAccount",
      "type": "error"
    },
    {
      "anonymous": false,
      "inputs": [
        {
          "indexed": true,
          "internalType": "address",
          "name": "owner",
          "type": "address"
        },
        {
          "indexed": true,
          "internalType": "address",
          "name": "approved",
          "type": "address"
        },
        {
          "indexed": true,
          "internalType": "uint256",
          "name": "tokenId",
          "type": "uint256"
        }
      ],
      "name": "Approval",
      "type": "event"
    },
    {
      "anonymous": false,
      "inputs": [
        {
          "indexed": true,
          "internalType": "address",
          "name": "owner",
          "type": "address"
        },
        {
          "indexed": true,
          "internalType": "address",
          "name": "operator",
          "type": "address"
        },
        {
          "indexed": false,
          "internalType": "bool",
          "name": "approved",
          "type": "bool"
        }
      ],
      "name": "ApprovalForAll",
      "type": "event"
    },
    {
      "anonymous": false,
      "inputs": [
        {
          "indexed": true,
          "internalType": "address",
          "name": "previousOwner",
          "type": "address"
        },
        {
          "indexed": true,
          "internalType": "address",
          "name": "newOwner",
          "type": "address"
        }
      ],
      "name": "OwnershipTransferred",
      "type": "event"
    },
    {
      "anonymous": false,
      "inputs": [
        {
          "indexed": true,
          "internalType": "address",
          "name": "from",
          "type": "address"
        },
        {
          "indexed": true,
          "internalType": "address",
          "name": "to",
          "type": "address"
        },
        {
          "indexed": true,
          "internalType": "uint256",
          "name": "tokenId",
          "type": "uint256"
        }
      ],
      "name": "Transfer",
      "type": "event"
    },
    {
      "inputs": [
        {
          "internalType": "address",
          "name": "to",
          "type": "address"
        },
        {
          "internalType": "uint256",
          "name": "tokenId",
          "type": "uint256"
        }
      ],
      "name": "approve",
      "outputs": [],
      "stateMutability": "nonpayable",
      "type": "function"
    },
    {
      "inputs": [
        {
          "internalType": "address",
          "name": "owner",
          "type": "address"
        }
      ],
      "name": "balanceOf",
      "outputs": [
        {
          "internalType": "uint256",
          "name": "",
          "type": "uint256"
        }
      ],
      "stateMutability": "view",
      "type": "function"
    },
    {
      "inputs": [],
      "name": "getAllArticles",
      "outputs": [
        {
          "components": [
            {
              "internalType": "string",
              "name": "title",
              "type": "string"
            },
            {
              "internalType": "string",
              "name": "desc",
              "type": "string"
            },
            {
              "internalType": "uint256",
              "name": "created",
              "type": "uint256"
            },
            {
              "internalType": "string",
              "name": "userId",
              "type": "string"
            }
          ],
          "internalType": "struct NewsMint.News[]",
          "name": "",
          "type": "tuple[]"
        }
      ],
      "stateMutability": "view",
      "type": "function"
    },
    {
      "inputs": [
        {
          "internalType": "uint256",
          "name": "tokenId",
          "type": "uint256"
        }
      ],
      "name": "getApproved",
      "outputs": [
        {
          "internalType": "address",
          "name": "",
          "type": "address"
        }
      ],
      "stateMutability": "view",
      "type": "function"
    },
    {
      "inputs": [
        {
          "internalType": "string",
          "name": "userId",
          "type": "string"
        }
      ],
      "name": "getArticlesByUser",
      "outputs": [
        {
          "components": [
            {
              "internalType": "string",
              "name": "title",
              "type": "string"
            },
            {
              "internalType": "string",
              "name": "desc",
              "type": "string"
            },
            {
              "internalType": "uint256",
              "name": "created",
              "type": "uint256"
            },
            {
              "internalType": "string",
              "name": "userId",
              "type": "string"
            }
          ],
          "internalType": "struct NewsMint.News[]",
          "name": "",
          "type": "tuple[]"
        }
      ],
      "stateMutability": "view",
      "type": "function"
    },
    {
      "inputs": [
        {
          "internalType": "uint256",
          "name": "tokenId",
          "type": "uint256"
        }
      ],
      "name": "getNewsArticle",
      "outputs": [
        {
          "internalType": "string",
          "name": "title",
          "type": "string"
        },
        {
          "internalType": "string",
          "name": "desc",
          "type": "string"
        },
        {
          "internalType": "uint256",
          "name": "created",
          "type": "uint256"
        },
        {
          "internalType": "string",
          "name": "userId",
          "type": "string"
        }
      ],
      "stateMutability": "view",
      "type": "function"
    },
    {
      "inputs": [
        {
          "internalType": "address",
          "name": "owner",
          "type": "address"
        },
        {
          "internalType": "address",
          "name": "operator",
          "type": "address"
        }
      ],
      "name": "isApprovedForAll",
      "outputs": [
        {
          "internalType": "bool",
          "name": "",
          "type": "bool"
        }
      ],
      "stateMutability": "view",
      "type": "function"
    },
    {
      "inputs": [
        {
          "internalType": "string",
          "name": "title",
          "type": "string"
        },
        {
          "internalType": "string",
          "name": "desc",
          "type": "string"
        },
        {
          "internalType": "string",
          "name": "userId",
          "type": "string"
        }
      ],
      "name": "mint",
      "outputs": [],
      "stateMutability": "nonpayable",
      "type": "function"
    },
    {
      "inputs": [],
      "name": "name",
      "outputs": [
        {
          "internalType": "string",
          "name": "",
          "type": "string"
        }
      ],
      "stateMutability": "view",
      "type": "function"
    },
    {
      "inputs": [],
      "name": "owner",
      "outputs": [
        {
          "internalType": "address",
          "name": "",
          "type": "address"
        }
      ],
      "stateMutability": "view",
      "type": "function"
    },
    {
      "inputs": [
        {
          "internalType": "uint256",
          "name": "tokenId",
          "type": "uint256"
        }
      ],
      "name": "ownerOf",
      "outputs": [
        {
          "internalType": "address",
          "name": "",
          "type": "address"
        }
      ],
      "stateMutability": "view",
      "type": "function"
    },
    {
      "inputs": [],
      "name": "renounceOwnership",
      "outputs": [],
      "stateMutability": "nonpayable",
      "type": "function"
    },
    {
      "inputs": [
        {
          "internalType": "address",
          "name": "from",
          "type": "address"
        },
        {
          "internalType": "address",
          "name": "to",
          "type": "address"
        },
        {
          "internalType": "uint256",
          "name": "tokenId",
          "type": "uint256"
        }
      ],
      "name": "safeTransferFrom",
      "outputs": [],
      "stateMutability": "nonpayable",
      "type": "function"
    },
    {
      "inputs": [
        {
          "internalType": "address",
          "name": "from",
          "type": "address"
        },
        {
          "internalType": "address",
          "name": "to",
          "type": "address"
        },
        {
          "internalType": "uint256",
          "name": "tokenId",
          "type": "uint256"
        },
        {
          "internalType": "bytes",
          "name": "data",
          "type": "bytes"
        }
      ],
      "name": "safeTransferFrom",
      "outputs": [],
      "stateMutability": "nonpayable",
      "type": "function"
    },
    {
      "inputs": [
        {
          "internalType": "address",
          "name": "operator",
          "type": "address"
        },
        {
          "internalType": "bool",
          "name": "approved",
          "type": "bool"
        }
      ],
      "name": "setApprovalForAll",
      "outputs": [],
      "stateMutability": "nonpayable",
      "type": "function"
    },
    {
      "inputs": [
        {
          "internalType": "bytes4",
          "name": "interfaceId",
          "type": "bytes4"
        }
      ],
      "name": "supportsInterface",
      "outputs": [
        {
          "internalType": "bool",
          "name": "",
          "type": "bool"
        }
      ],
      "stateMutability": "view",
      "type": "function"
    },
    {
      "inputs": [],
      "name": "symbol",
      "outputs": [
        {
          "internalType": "string",
          "name": "",
          "type": "string"
        }
      ],
      "stateMutability": "view",
      "type": "function"
    },
    {
      "inputs": [],
      "name": "tokenIdCounter",
      "outputs": [
        {
          "internalType": "uint256",
          "name": "",
          "type": "uint256"
        }
      ],
      "stateMutability": "view",
      "type": "function"
    },
    {
      "inputs": [
        {
          "internalType": "uint256",
          "name": "tokenId",
          "type": "uint256"
        }
      ],
      "name": "tokenURI",
      "outputs": [
        {
          "internalType": "string",
          "name": "",
          "type": "string"
        }
      ],
      "stateMutability": "view",
      "type": "function"
    },
    {
      "inputs": [
        {
          "internalType": "address",
          "name": "from",
          "type": "address"
        },
        {
          "internalType": "address",
          "name": "to",
          "type": "address"
        },
        {
          "internalType": "uint256",
          "name": "tokenId",
          "type": "uint256"
        }
      ],
      "name": "transferFrom",
      "outputs": [],
      "stateMutability": "nonpayable",
      "type": "function"
    },
    {
      "inputs": [
        {
          "internalType": "address",
          "name": "newOwner",
          "type": "address"
        }
      ],
      "name": "transferOwnership",
      "outputs": [],
      "stateMutability": "nonpayable",
      "type": "function"
    }
  ],
  "bytecode": "0x60806040523480156200001157600080fd5b50336040518060400160405280600881526020017f4e6577734d696e740000000000000000000000000000000000000000000000008152506040518060400160405280600381526020017f44434e000000000000000000000000000000000000000000000000000000000081525081600090816200009091906200047a565b508060019081620000a291906200047a565b505050600073ffffffffffffffffffffffffffffffffffffffff168173ffffffffffffffffffffffffffffffffffffffff16036200011a5760006040517f1e4fbdf7000000000000000000000000000000000000000000000000000000008152600401620001119190620005a6565b60405180910390fd5b6200012b816200013a60201b60201c565b506001600781905550620005c3565b6000600660009054906101000a900473ffffffffffffffffffffffffffffffffffffffff16905081600660006101000a81548173ffffffffffffffffffffffffffffffffffffffff021916908373ffffffffffffffffffffffffffffffffffffffff1602179055508173ffffffffffffffffffffffffffffffffffffffff168173ffffffffffffffffffffffffffffffffffffffff167f8be0079c531659141344cd1fd0a4f28419497f9722a3daafe3b4186f6b6457e060405160405180910390a35050565b600081519050919050565b7f4e487b7100000000000000000000000000000000000000000000000000000000600052604160045260246000fd5b7f4e487b7100000000000000000000000000000000000000000000000000000000600052602260045260246000fd5b600060028204905060018216806200028257607f821691505b6020821081036200029857620002976200023a565b5b50919050565b60008190508160005260206000209050919050565b60006020601f8301049050919050565b600082821b905092915050565b600060088302620003027fffffffffffffffffffffffffffffffffffffffffffffffffffffffffffffffff82620002c3565b6200030e8683620002c3565b95508019841693508086168417925050509392505050565b6000819050919050565b6000819050919050565b60006200035b620003556200034f8462000326565b62000330565b62000326565b9050919050565b6000819050919050565b62000377836200033a565b6200038f620003868262000362565b848454620002d0565b825550505050565b600090565b620003a662000397565b620003b38184846200036c565b505050565b5b81811015620003db57620003cf6000826200039c565b600181019050620003b9565b5050565b601f8211156200042a57620003f4816200029e565b620003ff84620002b3565b810160208510156200040f578190505b620004276200041e85620002b3565b830182620003b8565b50505b505050565b600082821c905092915050565b60006200044f600019846008026200042f565b1980831691505092915050565b60006200046a83836200043c565b9150826002028217905092915050565b620004858262000200565b67ffffffffffffffff811115620004a157620004a06200020b565b5b620004ad825462000269565b620004ba828285620003df565b600060209050601f831160018114620004f25760008415620004dd578287015190505b620004e985826200045c565b86555062000559565b601f19841662000502866200029e565b60005b828110156200052c5784890151825560018201915060208501945060208101905062000505565b868310156200054c578489015162000548601f8916826200043c565b8355505b6001600288020188555050505b505050505050565b600073ffffffffffffffffffffffffffffffffffffffff82169050919050565b60006200058e8262000561565b9050919050565b620005a08162000581565b82525050565b6000602082019050620005bd600083018462000595565b92915050565b6132e280620005d36000396000f3fe608060405234801561001057600080fd5b50600436106101375760003560e01c80638da5cb5b116100b8578063b44d310b1161007c578063b44d310b14610351578063b88d4fde1461036f578063c87b56dd1461038b578063d645ddf6146103bb578063e985e9c5146103d7578063f2fde38b1461040757610137565b80638da5cb5b146102a857806395d89b41146102c657806398bdf6f5146102e4578063a0b27e6814610302578063a22cb4651461033557610137565b806323b872dd116100ff57806323b872dd1461020657806342842e0e146102225780636352211e1461023e57806370a082311461026e578063715018a61461029e57610137565b806301ffc9a71461013c57806306fdde031461016c578063081812fc1461018a578063095ea7b3146101ba57806323aa84a1146101d6575b600080fd5b6101566004803603810190610151919061234c565b610423565b6040516101639190612394565b60405180910390f35b610174610505565b604051610181919061243f565b60405180910390f35b6101a4600480360381019061019f9190612497565b610597565b6040516101b19190612505565b60405180910390f35b6101d460048036038101906101cf919061254c565b6105b3565b005b6101f060048036038101906101eb91906126c1565b6105c9565b6040516101fd9190612896565b60405180910390f35b610220600480360381019061021b91906128b8565b6108d5565b005b61023c600480360381019061023791906128b8565b6109d7565b005b61025860048036038101906102539190612497565b6109f7565b6040516102659190612505565b60405180910390f35b6102886004803603810190610283919061290b565b610a09565b6040516102959190612947565b60405180910390f35b6102a6610ac3565b005b6102b0610ad7565b6040516102bd9190612505565b60405180910390f35b6102ce610b01565b6040516102db919061243f565b60405180910390f35b6102ec610b93565b6040516102f99190612947565b60405180910390f35b61031c60048036038101906103179190612497565b610b99565b60405161032c9493929190612962565b60405180910390f35b61034f600480360381019061034a91906129e8565b610e06565b005b610359610e1c565b6040516103669190612896565b60405180910390f35b61038960048036038101906103849190612ac9565b6110b2565b005b6103a560048036038101906103a09190612497565b6110cf565b6040516103b2919061243f565b60405180910390f35b6103d560048036038101906103d09190612b4c565b611138565b005b6103f160048036038101906103ec9190612bf3565b61117b565b6040516103fe9190612394565b60405180910390f35b610421600480360381019061041c919061290b565b61120f565b005b60007f80ac58cd000000000000000000000000000000000000000000000000000000007bffffffffffffffffffffffffffffffffffffffffffffffffffffffff1916827bffffffffffffffffffffffffffffffffffffffffffffffffffffffff191614806104ee57507f5b5e139f000000000000000000000000000000000000000000000000000000007bffffffffffffffffffffffffffffffffffffffffffffffffffffffff1916827bffffffffffffffffffffffffffffffffffffffffffffffffffffffff1916145b806104fe57506104fd82611295565b5b9050919050565b60606000805461051490612c62565b80601f016020809104026020016040519081016040528092919081815260200182805461054090612c62565b801561058d5780601f106105625761010080835404028352916020019161058d565b820191906000526020600020905b81548152906001019060200180831161057057829003601f168201915b5050505050905090565b60006105a2826112ff565b506105ac82611387565b9050919050565b6105c582826105c06113c4565b6113cc565b5050565b60606000600a836040516105dd9190612ccf565b908152602001604051809103902080548060200260200160405190810160405280929190818152602001828054801561063557602002820191906000526020600020905b815481526020019060010190808311610621575b505050505090506000815167ffffffffffffffff81111561065957610658612596565b5b60405190808252806020026020018201604052801561069257816020015b61067f6122b8565b8152602001906001900390816106775790505b50905060005b82518110156108ca5760008382815181106106b6576106b5612ce6565b5b60200260200101519050600860008281526020019081526020016000206040518060800160405290816000820180546106ee90612c62565b80601f016020809104026020016040519081016040528092919081815260200182805461071a90612c62565b80156107675780601f1061073c57610100808354040283529160200191610767565b820191906000526020600020905b81548152906001019060200180831161074a57829003601f168201915b5050505050815260200160018201805461078090612c62565b80601f01602080910402602001604051908101604052809291908181526020018280546107ac90612c62565b80156107f95780601f106107ce576101008083540402835291602001916107f9565b820191906000526020600020905b8154815290600101906020018083116107dc57829003601f168201915b505050505081526020016002820154815260200160038201805461081c90612c62565b80601f016020809104026020016040519081016040528092919081815260200182805461084890612c62565b80156108955780601f1061086a57610100808354040283529160200191610895565b820191906000526020600020905b81548152906001019060200180831161087857829003601f168201915b5050505050815250508383815181106108b1576108b0612ce6565b5b6020026020010181905250508080600101915050610698565b508092505050919050565b600073ffffffffffffffffffffffffffffffffffffffff168273ffffffffffffffffffffffffffffffffffffffff16036109475760006040517f64a0ae9200000000000000000000000000000000000000000000000000000000815260040161093e9190612505565b60405180910390fd5b600061095b83836109566113c4565b6113de565b90508373ffffffffffffffffffffffffffffffffffffffff168173ffffffffffffffffffffffffffffffffffffffff16146109d1578382826040517f64283d7b0000000000000000000000000000000000000000000000000000000081526004016109c893929190612d15565b60405180910390fd5b50505050565b6109f2838383604051806020016040528060008152506110b2565b505050565b6000610a02826112ff565b9050919050565b60008073ffffffffffffffffffffffffffffffffffffffff168273ffffffffffffffffffffffffffffffffffffffff1603610a7c5760006040517f89c62b64000000000000000000000000000000000000000000000000000000008152600401610a739190612505565b60405180910390fd5b600360008373ffffffffffffffffffffffffffffffffffffffff1673ffffffffffffffffffffffffffffffffffffffff168152602001908152602001600020549050919050565b610acb6115f8565b610ad5600061167f565b565b6000600660009054906101000a900473ffffffffffffffffffffffffffffffffffffffff16905090565b606060018054610b1090612c62565b80601f0160208091040260200160405190810160405280929190818152602001828054610b3c90612c62565b8015610b895780601f10610b5e57610100808354040283529160200191610b89565b820191906000526020600020905b815481529060010190602001808311610b6c57829003601f168201915b5050505050905090565b60075481565b606080600060606009600086815260200190815260200160002060009054906101000a900460ff16610c00576040517f08c379a0000000000000000000000000000000000000000000000000000000008152600401610bf790612d98565b60405180910390fd5b600060086000878152602001908152602001600020604051806080016040529081600082018054610c3090612c62565b80601f0160208091040260200160405190810160405280929190818152602001828054610c5c90612c62565b8015610ca95780601f10610c7e57610100808354040283529160200191610ca9565b820191906000526020600020905b815481529060010190602001808311610c8c57829003601f168201915b50505050508152602001600182018054610cc290612c62565b80601f0160208091040260200160405190810160405280929190818152602001828054610cee90612c62565b8015610d3b5780601f10610d1057610100808354040283529160200191610d3b565b820191906000526020600020905b815481529060010190602001808311610d1e57829003601f168201915b5050505050815260200160028201548152602001600382018054610d5e90612c62565b80601f0160208091040260200160405190810160405280929190818152602001828054610d8a90612c62565b8015610dd75780601f10610dac57610100808354040283529160200191610dd7565b820191906000526020600020905b815481529060010190602001808311610dba57829003601f168201915b505050505081525050905080600001518160200151826040015183606001519450945094509450509193509193565b610e18610e116113c4565b8383611745565b5050565b606060006001600754610e2f9190612de7565b67ffffffffffffffff811115610e4857610e47612596565b5b604051908082528060200260200182016040528015610e8157816020015b610e6e6122b8565b815260200190600190039081610e665790505b5090506000600190505b6007548110156110aa5760086000828152602001908152602001600020604051806080016040529081600082018054610ec390612c62565b80601f0160208091040260200160405190810160405280929190818152602001828054610eef90612c62565b8015610f3c5780601f10610f1157610100808354040283529160200191610f3c565b820191906000526020600020905b815481529060010190602001808311610f1f57829003601f168201915b50505050508152602001600182018054610f5590612c62565b80601f0160208091040260200160405190810160405280929190818152602001828054610f8190612c62565b8015610fce5780601f10610fa357610100808354040283529160200191610fce565b820191906000526020600020905b815481529060010190602001808311610fb157829003601f168201915b5050505050815260200160028201548152602001600382018054610ff190612c62565b80601f016020809104026020016040519081016040528092919081815260200182805461101d90612c62565b801561106a5780601f1061103f5761010080835404028352916020019161106a565b820191906000526020600020905b81548152906001019060200180831161104d57829003601f168201915b505050505081525050826001836110819190612de7565b8151811061109257611091612ce6565b5b60200260200101819052508080600101915050610e8b565b508091505090565b6110bd8484846108d5565b6110c9848484846118b4565b50505050565b60606110da826112ff565b5060006110e5611a6b565b905060008151116111055760405180602001604052806000815250611130565b8061110f84611a82565b604051602001611120929190612e1b565b6040516020818303038152906040525b915050919050565b6111406115f8565b600060075490506111513382611b50565b61115d81858585611b6e565b6007600081548092919061117090612e3f565b919050555050505050565b6000600560008473ffffffffffffffffffffffffffffffffffffffff1673ffffffffffffffffffffffffffffffffffffffff16815260200190815260200160002060008373ffffffffffffffffffffffffffffffffffffffff1673ffffffffffffffffffffffffffffffffffffffff16815260200190815260200160002060009054906101000a900460ff16905092915050565b6112176115f8565b600073ffffffffffffffffffffffffffffffffffffffff168173ffffffffffffffffffffffffffffffffffffffff16036112895760006040517f1e4fbdf70000000000000000000000000000000000000000000000000000000081526004016112809190612505565b60405180910390fd5b6112928161167f565b50565b60007f01ffc9a7000000000000000000000000000000000000000000000000000000007bffffffffffffffffffffffffffffffffffffffffffffffffffffffff1916827bffffffffffffffffffffffffffffffffffffffffffffffffffffffff1916149050919050565b60008061130b83611cc9565b9050600073ffffffffffffffffffffffffffffffffffffffff168173ffffffffffffffffffffffffffffffffffffffff160361137e57826040517f7e2732890000000000000000000000000000000000000000000000000000000081526004016113759190612947565b60405180910390fd5b80915050919050565b60006004600083815260200190815260200160002060009054906101000a900473ffffffffffffffffffffffffffffffffffffffff169050919050565b600033905090565b6113d98383836001611d06565b505050565b6000806113ea84611cc9565b9050600073ffffffffffffffffffffffffffffffffffffffff168373ffffffffffffffffffffffffffffffffffffffff161461142c5761142b818486611ecb565b5b600073ffffffffffffffffffffffffffffffffffffffff168173ffffffffffffffffffffffffffffffffffffffff16146114bd5761146e600085600080611d06565b6001600360008373ffffffffffffffffffffffffffffffffffffffff1673ffffffffffffffffffffffffffffffffffffffff168152602001908152602001600020600082825403925050819055505b600073ffffffffffffffffffffffffffffffffffffffff168573ffffffffffffffffffffffffffffffffffffffff1614611540576001600360008773ffffffffffffffffffffffffffffffffffffffff1673ffffffffffffffffffffffffffffffffffffffff168152602001908152602001600020600082825401925050819055505b846002600086815260200190815260200160002060006101000a81548173ffffffffffffffffffffffffffffffffffffffff021916908373ffffffffffffffffffffffffffffffffffffffff160217905550838573ffffffffffffffffffffffffffffffffffffffff168273ffffffffffffffffffffffffffffffffffffffff167fddf252ad1be2c89b69c2b068fc378daa952ba7f163c4a11628f55a4df523b3ef60405160405180910390a4809150509392505050565b6116006113c4565b73ffffffffffffffffffffffffffffffffffffffff1661161e610ad7565b73ffffffffffffffffffffffffffffffffffffffff161461167d576116416113c4565b6040517f118cdaa70000000000000000000000000000000000000000000000000000000081526004016116749190612505565b60405180910390fd5b565b6000600660009054906101000a900473ffffffffffffffffffffffffffffffffffffffff16905081600660006101000a81548173ffffffffffffffffffffffffffffffffffffffff021916908373ffffffffffffffffffffffffffffffffffffffff1602179055508173ffffffffffffffffffffffffffffffffffffffff168173ffffffffffffffffffffffffffffffffffffffff167f8be0079c531659141344cd1fd0a4f28419497f9722a3daafe3b4186f6b6457e060405160405180910390a35050565b600073ffffffffffffffffffffffffffffffffffffffff168273ffffffffffffffffffffffffffffffffffffffff16036117b657816040517f5b08ba180000000000000000000000000000000000000000000000000000000081526004016117ad9190612505565b60405180910390fd5b80600560008573ffffffffffffffffffffffffffffffffffffffff1673ffffffffffffffffffffffffffffffffffffffff16815260200190815260200160002060008473ffffffffffffffffffffffffffffffffffffffff1673ffffffffffffffffffffffffffffffffffffffff16815260200190815260200160002060006101000a81548160ff0219169083151502179055508173ffffffffffffffffffffffffffffffffffffffff168373ffffffffffffffffffffffffffffffffffffffff167f17307eab39ab6107e8899845ad3d59bd9653f200f220920489ca2b5937696c31836040516118a79190612394565b60405180910390a3505050565b60008373ffffffffffffffffffffffffffffffffffffffff163b1115611a65578273ffffffffffffffffffffffffffffffffffffffff1663150b7a026118f86113c4565b8685856040518563ffffffff1660e01b815260040161191a9493929190612edc565b6020604051808303816000875af192505050801561195657506040513d601f19601f820116820180604052508101906119539190612f3d565b60015b6119da573d8060008114611986576040519150601f19603f3d011682016040523d82523d6000602084013e61198b565b606091505b5060008151036119d257836040517f64a0ae920000000000000000000000000000000000000000000000000000000081526004016119c99190612505565b60405180910390fd5b805181602001fd5b63150b7a0260e01b7bffffffffffffffffffffffffffffffffffffffffffffffffffffffff1916817bffffffffffffffffffffffffffffffffffffffffffffffffffffffff191614611a6357836040517f64a0ae92000000000000000000000000000000000000000000000000000000008152600401611a5a9190612505565b60405180910390fd5b505b50505050565b606060405180602001604052806000815250905090565b606060006001611a9184611f8f565b01905060008167ffffffffffffffff811115611ab057611aaf612596565b5b6040519080825280601f01601f191660200182016040528015611ae25781602001600182028036833780820191505090505b509050600082602001820190505b600115611b45578080600190039150507f3031323334353637383961626364656600000000000000000000000000000000600a86061a8153600a8581611b3957611b38612f6a565b5b04945060008503611af0575b819350505050919050565b611b6a8282604051806020016040528060008152506120e2565b5050565b6009600085815260200190815260200160002060009054906101000a900460ff1615611bcf576040517f08c379a0000000000000000000000000000000000000000000000000000000008152600401611bc690612fe5565b60405180910390fd5b604051806080016040528084815260200183815260200142815260200182815250600860008681526020019081526020016000206000820151816000019081611c1891906131b1565b506020820151816001019081611c2e91906131b1565b50604082015181600201556060820151816003019081611c4e91906131b1565b5090505060016009600086815260200190815260200160002060006101000a81548160ff021916908315150217905550600a81604051611c8e9190612ccf565b908152602001604051809103902084908060018154018082558091505060019003906000526020600020016000909190919091505550505050565b60006002600083815260200190815260200160002060009054906101000a900473ffffffffffffffffffffffffffffffffffffffff169050919050565b8080611d3f5750600073ffffffffffffffffffffffffffffffffffffffff168273ffffffffffffffffffffffffffffffffffffffff1614155b15611e73576000611d4f846112ff565b9050600073ffffffffffffffffffffffffffffffffffffffff168373ffffffffffffffffffffffffffffffffffffffff1614158015611dba57508273ffffffffffffffffffffffffffffffffffffffff168173ffffffffffffffffffffffffffffffffffffffff1614155b8015611dcd5750611dcb818461117b565b155b15611e0f57826040517fa9fbf51f000000000000000000000000000000000000000000000000000000008152600401611e069190612505565b60405180910390fd5b8115611e7157838573ffffffffffffffffffffffffffffffffffffffff168273ffffffffffffffffffffffffffffffffffffffff167f8c5be1e5ebec7d5bd14f71427d1e84f3dd0314c0f7b2291e5b200ac8c7c3b92560405160405180910390a45b505b836004600085815260200190815260200160002060006101000a81548173ffffffffffffffffffffffffffffffffffffffff021916908373ffffffffffffffffffffffffffffffffffffffff16021790555050505050565b611ed68383836120fe565b611f8a57600073ffffffffffffffffffffffffffffffffffffffff168373ffffffffffffffffffffffffffffffffffffffff1603611f4b57806040517f7e273289000000000000000000000000000000000000000000000000000000008152600401611f429190612947565b60405180910390fd5b81816040517f177e802f000000000000000000000000000000000000000000000000000000008152600401611f81929190613283565b60405180910390fd5b505050565b600080600090507a184f03e93ff9f4daa797ed6e38ed64bf6a1f0100000000000000008310611fed577a184f03e93ff9f4daa797ed6e38ed64bf6a1f0100000000000000008381611fe357611fe2612f6a565b5b0492506040810190505b6d04ee2d6d415b85acef8100000000831061202a576d04ee2d6d415b85acef810000000083816120205761201f612f6a565b5b0492506020810190505b662386f26fc10000831061205957662386f26fc10000838161204f5761204e612f6a565b5b0492506010810190505b6305f5e1008310612082576305f5e100838161207857612077612f6a565b5b0492506008810190505b61271083106120a757612710838161209d5761209c612f6a565b5b0492506004810190505b606483106120ca57606483816120c0576120bf612f6a565b5b0492506002810190505b600a83106120d9576001810190505b80915050919050565b6120ec83836121bf565b6120f960008484846118b4565b505050565b60008073ffffffffffffffffffffffffffffffffffffffff168373ffffffffffffffffffffffffffffffffffffffff16141580156121b657508273ffffffffffffffffffffffffffffffffffffffff168473ffffffffffffffffffffffffffffffffffffffff1614806121775750612176848461117b565b5b806121b557508273ffffffffffffffffffffffffffffffffffffffff1661219d83611387565b73ffffffffffffffffffffffffffffffffffffffff16145b5b90509392505050565b600073ffffffffffffffffffffffffffffffffffffffff168273ffffffffffffffffffffffffffffffffffffffff16036122315760006040517f64a0ae920000000000000000000000000000000000000000000000000000000081526004016122289190612505565b60405180910390fd5b600061223f838360006113de565b9050600073ffffffffffffffffffffffffffffffffffffffff168173ffffffffffffffffffffffffffffffffffffffff16146122b35760006040517f73c6ac6e0000000000000000000000000000000000000000000000000000000081526004016122aa9190612505565b60405180910390fd5b505050565b6040518060800160405280606081526020016060815260200160008152602001606081525090565b6000604051905090565b600080fd5b600080fd5b60007fffffffff0000000000000000000000000000000000000000000000000000000082169050919050565b612329816122f4565b811461233457600080fd5b50565b60008135905061234681612320565b92915050565b600060208284031215612362576123616122ea565b5b600061237084828501612337565b91505092915050565b60008115159050919050565b61238e81612379565b82525050565b60006020820190506123a96000830184612385565b92915050565b600081519050919050565b600082825260208201905092915050565b60005b838110156123e95780820151818401526020810190506123ce565b60008484015250505050565b6000601f19601f8301169050919050565b6000612411826123af565b61241b81856123ba565b935061242b8185602086016123cb565b612434816123f5565b840191505092915050565b600060208201905081810360008301526124598184612406565b905092915050565b6000819050919050565b61247481612461565b811461247f57600080fd5b50565b6000813590506124918161246b565b92915050565b6000602082840312156124ad576124ac6122ea565b5b60006124bb84828501612482565b91505092915050565b600073ffffffffffffffffffffffffffffffffffffffff82169050919050565b60006124ef826124c4565b9050919050565b6124ff816124e4565b82525050565b600060208201905061251a60008301846124f6565b92915050565b612529816124e4565b811461253457600080fd5b50565b60008135905061254681612520565b92915050565b60008060408385031215612563576125626122ea565b5b600061257185828601612537565b925050602061258285828601612482565b9150509250929050565b600080fd5b600080fd5b7f4e487b7100000000000000000000000000000000000000000000000000000000600052604160045260246000fd5b6125ce826123f5565b810181811067ffffffffffffffff821117156125ed576125ec612596565b5b80604052505050565b60006126006122e0565b905061260c82826125c5565b919050565b600067ffffffffffffffff82111561262c5761262b612596565b5b612635826123f5565b9050602081019050919050565b82818337600083830152505050565b600061266461265f84612611565b6125f6565b9050828152602081018484840111156126805761267f612591565b5b61268b848285612642565b509392505050565b600082601f8301126126a8576126a761258c565b5b81356126b8848260208601612651565b91505092915050565b6000602082840312156126d7576126d66122ea565b5b600082013567ffffffffffffffff8111156126f5576126f46122ef565b5b61270184828501612693565b91505092915050565b600081519050919050565b600082825260208201905092915050565b6000819050602082019050919050565b600082825260208201905092915050565b6000612752826123af565b61275c8185612736565b935061276c8185602086016123cb565b612775816123f5565b840191505092915050565b61278981612461565b82525050565b600060808301600083015184820360008601526127ac8282612747565b915050602083015184820360208601526127c68282612747565b91505060408301516127db6040860182612780565b50606083015184820360608601526127f38282612747565b9150508091505092915050565b600061280c838361278f565b905092915050565b6000602082019050919050565b600061282c8261270a565b6128368185612715565b93508360208202850161284885612726565b8060005b8581101561288457848403895281516128658582612800565b945061287083612814565b925060208a0199505060018101905061284c565b50829750879550505050505092915050565b600060208201905081810360008301526128b08184612821565b905092915050565b6000806000606084860312156128d1576128d06122ea565b5b60006128df86828701612537565b93505060206128f086828701612537565b925050604061290186828701612482565b9150509250925092565b600060208284031215612921576129206122ea565b5b600061292f84828501612537565b91505092915050565b61294181612461565b82525050565b600060208201905061295c6000830184612938565b92915050565b6000608082019050818103600083015261297c8187612406565b905081810360208301526129908186612406565b905061299f6040830185612938565b81810360608301526129b18184612406565b905095945050505050565b6129c581612379565b81146129d057600080fd5b50565b6000813590506129e2816129bc565b92915050565b600080604083850312156129ff576129fe6122ea565b5b6000612a0d85828601612537565b9250506020612a1e858286016129d3565b9150509250929050565b600067ffffffffffffffff821115612a4357612a42612596565b5b612a4c826123f5565b9050602081019050919050565b6000612a6c612a6784612a28565b6125f6565b905082815260208101848484011115612a8857612a87612591565b5b612a93848285612642565b509392505050565b600082601f830112612ab057612aaf61258c565b5b8135612ac0848260208601612a59565b91505092915050565b60008060008060808587031215612ae357612ae26122ea565b5b6000612af187828801612537565b9450506020612b0287828801612537565b9350506040612b1387828801612482565b925050606085013567ffffffffffffffff811115612b3457612b336122ef565b5b612b4087828801612a9b565b91505092959194509250565b600080600060608486031215612b6557612b646122ea565b5b600084013567ffffffffffffffff811115612b8357612b826122ef565b5b612b8f86828701612693565b935050602084013567ffffffffffffffff811115612bb057612baf6122ef565b5b612bbc86828701612693565b925050604084013567ffffffffffffffff811115612bdd57612bdc6122ef565b5b612be986828701612693565b9150509250925092565b60008060408385031215612c0a57612c096122ea565b5b6000612c1885828601612537565b9250506020612c2985828601612537565b9150509250929050565b7f4e487b7100000000000000000000000000000000000000000000000000000000600052602260045260246000fd5b60006002820490506001821680612c7a57607f821691505b602082108103612c8d57612c8c612c33565b5b50919050565b600081905092915050565b6000612ca9826123af565b612cb38185612c93565b9350612cc38185602086016123cb565b80840191505092915050565b6000612cdb8284612c9e565b915081905092915050565b7f4e487b7100000000000000000000000000000000000000000000000000000000600052603260045260246000fd5b6000606082019050612d2a60008301866124f6565b612d376020830185612938565b612d4460408301846124f6565b949350505050565b7f546f6b656e20646f6573206e6f74206578697374000000000000000000000000600082015250565b6000612d826014836123ba565b9150612d8d82612d4c565b602082019050919050565b60006020820190508181036000830152612db181612d75565b9050919050565b7f4e487b7100000000000000000000000000000000000000000000000000000000600052601160045260246000fd5b6000612df282612461565b9150612dfd83612461565b9250828203905081811115612e1557612e14612db8565b5b92915050565b6000612e278285612c9e565b9150612e338284612c9e565b91508190509392505050565b6000612e4a82612461565b91507fffffffffffffffffffffffffffffffffffffffffffffffffffffffffffffffff8203612e7c57612e7b612db8565b5b600182019050919050565b600081519050919050565b600082825260208201905092915050565b6000612eae82612e87565b612eb88185612e92565b9350612ec88185602086016123cb565b612ed1816123f5565b840191505092915050565b6000608082019050612ef160008301876124f6565b612efe60208301866124f6565b612f0b6040830185612938565b8181036060830152612f1d8184612ea3565b905095945050505050565b600081519050612f3781612320565b92915050565b600060208284031215612f5357612f526122ea565b5b6000612f6184828501612f28565b91505092915050565b7f4e487b7100000000000000000000000000000000000000000000000000000000600052601260045260246000fd5b7f546f6b656e20616c726561647920657869737473000000000000000000000000600082015250565b6000612fcf6014836123ba565b9150612fda82612f99565b602082019050919050565b60006020820190508181036000830152612ffe81612fc2565b9050919050565b60008190508160005260206000209050919050565b60006020601f8301049050919050565b600082821b905092915050565b6000600883026130677fffffffffffffffffffffffffffffffffffffffffffffffffffffffffffffffff8261302a565b613071868361302a565b95508019841693508086168417925050509392505050565b6000819050919050565b60006130ae6130a96130a484612461565b613089565b612461565b9050919050565b6000819050919050565b6130c883613093565b6130dc6130d4826130b5565b848454613037565b825550505050565b600090565b6130f16130e4565b6130fc8184846130bf565b505050565b5b81811015613120576131156000826130e9565b600181019050613102565b5050565b601f8211156131655761313681613005565b61313f8461301a565b8101602085101561314e578190505b61316261315a8561301a565b830182613101565b50505b505050565b600082821c905092915050565b60006131886000198460080261316a565b1980831691505092915050565b60006131a18383613177565b9150826002028217905092915050565b6131ba826123af565b67ffffffffffffffff8111156131d3576131d2612596565b5b6131dd8254612c62565b6131e8828285613124565b600060209050601f83116001811461321b5760008415613209578287015190505b6132138582613195565b86555061327b565b601f19841661322986613005565b60005b828110156132515784890151825560018201915060208501945060208101905061322c565b8683101561326e578489015161326a601f891682613177565b8355505b6001600288020188555050505b505050505050565b600060408201905061329860008301856124f6565b6132a56020830184612938565b939250505056fea2646970667358221220d6693d004cdf4239744d89827bb745c56a9f1ed9510719fa23738e5a8af116e164736f6c63430008180033",
  "linkReferences": {},
  "deployedLinkReferences": {}
}